{
  "contractName": "Space",
  "abi": [
    {
      "constant": true,
      "inputs": [
        {
          "name": "_interfaceId",
          "type": "bytes4"
        }
      ],
      "name": "supportsInterface",
      "outputs": [
        {
          "name": "",
          "type": "bool"
        }
      ],
      "payable": false,
      "stateMutability": "view",
      "type": "function"
    },
    {
      "constant": true,
      "inputs": [],
      "name": "name",
      "outputs": [
        {
          "name": "",
          "type": "string"
        }
      ],
      "payable": false,
      "stateMutability": "view",
      "type": "function"
    },
    {
      "constant": true,
      "inputs": [
        {
          "name": "_tokenId",
          "type": "uint256"
        }
      ],
      "name": "getApproved",
      "outputs": [
        {
          "name": "",
          "type": "address"
        }
      ],
      "payable": false,
      "stateMutability": "view",
      "type": "function"
    },
    {
      "constant": false,
      "inputs": [
        {
          "name": "_to",
          "type": "address"
        },
        {
          "name": "_tokenId",
          "type": "uint256"
        }
      ],
      "name": "approve",
      "outputs": [],
      "payable": false,
      "stateMutability": "nonpayable",
      "type": "function"
    },
    {
      "constant": true,
      "inputs": [],
      "name": "totalSupply",
      "outputs": [
        {
          "name": "",
          "type": "uint256"
        }
      ],
      "payable": false,
      "stateMutability": "view",
      "type": "function"
    },
    {
      "constant": true,
      "inputs": [],
      "name": "InterfaceId_ERC165",
      "outputs": [
        {
          "name": "",
          "type": "bytes4"
        }
      ],
      "payable": false,
      "stateMutability": "view",
      "type": "function"
    },
    {
      "constant": false,
      "inputs": [
        {
          "name": "_from",
          "type": "address"
        },
        {
          "name": "_to",
          "type": "address"
        },
        {
          "name": "_tokenId",
          "type": "uint256"
        }
      ],
      "name": "transferFrom",
      "outputs": [],
      "payable": false,
      "stateMutability": "nonpayable",
      "type": "function"
    },
    {
      "constant": true,
      "inputs": [
        {
          "name": "_owner",
          "type": "address"
        },
        {
          "name": "_index",
          "type": "uint256"
        }
      ],
      "name": "tokenOfOwnerByIndex",
      "outputs": [
        {
          "name": "",
          "type": "uint256"
        }
      ],
      "payable": false,
      "stateMutability": "view",
      "type": "function"
    },
    {
      "constant": false,
      "inputs": [
        {
          "name": "_from",
          "type": "address"
        },
        {
          "name": "_to",
          "type": "address"
        },
        {
          "name": "_tokenId",
          "type": "uint256"
        }
      ],
      "name": "safeTransferFrom",
      "outputs": [],
      "payable": false,
      "stateMutability": "nonpayable",
      "type": "function"
    },
    {
      "constant": true,
      "inputs": [
        {
          "name": "_tokenId",
          "type": "uint256"
        }
      ],
      "name": "exists",
      "outputs": [
        {
          "name": "",
          "type": "bool"
        }
      ],
      "payable": false,
      "stateMutability": "view",
      "type": "function"
    },
    {
      "constant": true,
      "inputs": [
        {
          "name": "_index",
          "type": "uint256"
        }
      ],
      "name": "tokenByIndex",
      "outputs": [
        {
          "name": "",
          "type": "uint256"
        }
      ],
      "payable": false,
      "stateMutability": "view",
      "type": "function"
    },
    {
      "constant": true,
      "inputs": [
        {
          "name": "_tokenId",
          "type": "uint256"
        }
      ],
      "name": "ownerOf",
      "outputs": [
        {
          "name": "",
          "type": "address"
        }
      ],
      "payable": false,
      "stateMutability": "view",
      "type": "function"
    },
    {
      "constant": true,
      "inputs": [
        {
          "name": "_owner",
          "type": "address"
        }
      ],
      "name": "balanceOf",
      "outputs": [
        {
          "name": "",
          "type": "uint256"
        }
      ],
      "payable": false,
      "stateMutability": "view",
      "type": "function"
    },
    {
      "constant": true,
      "inputs": [],
      "name": "symbol",
      "outputs": [
        {
          "name": "",
          "type": "string"
        }
      ],
      "payable": false,
      "stateMutability": "view",
      "type": "function"
    },
    {
      "constant": false,
      "inputs": [
        {
          "name": "_to",
          "type": "address"
        },
        {
          "name": "_approved",
          "type": "bool"
        }
      ],
      "name": "setApprovalForAll",
      "outputs": [],
      "payable": false,
      "stateMutability": "nonpayable",
      "type": "function"
    },
    {
      "constant": false,
      "inputs": [
        {
          "name": "_from",
          "type": "address"
        },
        {
          "name": "_to",
          "type": "address"
        },
        {
          "name": "_tokenId",
          "type": "uint256"
        },
        {
          "name": "_data",
          "type": "bytes"
        }
      ],
      "name": "safeTransferFrom",
      "outputs": [],
      "payable": false,
      "stateMutability": "nonpayable",
      "type": "function"
    },
    {
      "constant": true,
      "inputs": [
        {
          "name": "_tokenId",
          "type": "uint256"
        }
      ],
      "name": "tokenURI",
      "outputs": [
        {
          "name": "",
          "type": "string"
        }
      ],
      "payable": false,
      "stateMutability": "view",
      "type": "function"
    },
    {
      "constant": true,
      "inputs": [
        {
          "name": "_owner",
          "type": "address"
        },
        {
          "name": "_operator",
          "type": "address"
        }
      ],
      "name": "isApprovedForAll",
      "outputs": [
        {
          "name": "",
          "type": "bool"
        }
      ],
      "payable": false,
      "stateMutability": "view",
      "type": "function"
    },
    {
      "anonymous": false,
      "inputs": [
        {
          "indexed": true,
          "name": "_from",
          "type": "address"
        },
        {
          "indexed": true,
          "name": "_to",
          "type": "address"
        },
        {
          "indexed": true,
          "name": "_tokenId",
          "type": "uint256"
        }
      ],
      "name": "Transfer",
      "type": "event"
    },
    {
      "anonymous": false,
      "inputs": [
        {
          "indexed": true,
          "name": "_owner",
          "type": "address"
        },
        {
          "indexed": true,
          "name": "_approved",
          "type": "address"
        },
        {
          "indexed": true,
          "name": "_tokenId",
          "type": "uint256"
        }
      ],
      "name": "Approval",
      "type": "event"
    },
    {
      "anonymous": false,
      "inputs": [
        {
          "indexed": true,
          "name": "_owner",
          "type": "address"
        },
        {
          "indexed": true,
          "name": "_operator",
          "type": "address"
        },
        {
          "indexed": false,
          "name": "_approved",
          "type": "bool"
        }
      ],
      "name": "ApprovalForAll",
      "type": "event"
    },
    {
      "constant": true,
      "inputs": [
        {
          "name": "id",
          "type": "uint32"
        }
      ],
      "name": "getSpaceInfo",
      "outputs": [
        {
          "name": "",
          "type": "string"
        },
        {
          "name": "",
          "type": "uint32"
        },
        {
          "name": "",
          "type": "uint32"
        },
        {
          "name": "",
          "type": "uint32"
        },
        {
          "name": "",
          "type": "uint32"
        },
        {
          "name": "",
          "type": "address"
        },
        {
          "name": "",
          "type": "string"
        }
      ],
      "payable": false,
      "stateMutability": "view",
      "type": "function"
    },
    {
      "constant": false,
      "inputs": [
        {
          "name": "floor",
          "type": "uint32"
        },
        {
          "name": "_name",
          "type": "string"
        },
        {
          "name": "size",
          "type": "uint32"
        },
        {
          "name": "price",
          "type": "uint32"
        }
      ],
      "name": "createSpace",
      "outputs": [
        {
          "name": "",
          "type": "uint32"
        }
      ],
      "payable": false,
      "stateMutability": "nonpayable",
      "type": "function"
    },
    {
      "constant": false,
      "inputs": [
        {
          "name": "id",
          "type": "uint32"
        }
      ],
      "name": "destroySpace",
      "outputs": [],
      "payable": false,
      "stateMutability": "nonpayable",
      "type": "function"
    },
    {
      "constant": false,
      "inputs": [
        {
          "name": "parent",
          "type": "uint32"
        },
        {
          "name": "size",
          "type": "uint32"
        },
        {
          "name": "price",
          "type": "uint32"
        }
      ],
      "name": "splitSpace",
      "outputs": [
        {
          "name": "",
          "type": "uint256"
        }
      ],
      "payable": false,
      "stateMutability": "nonpayable",
      "type": "function"
    },
    {
      "constant": false,
      "inputs": [
        {
          "name": "parent",
          "type": "uint32"
        },
        {
          "name": "size",
          "type": "uint32"
        },
        {
          "name": "price",
          "type": "uint32"
        }
      ],
      "name": "subletSpace",
      "outputs": [
        {
          "name": "",
          "type": "uint256"
        }
      ],
      "payable": false,
      "stateMutability": "nonpayable",
      "type": "function"
    },
    {
      "constant": false,
      "inputs": [
        {
          "name": "id",
          "type": "uint32"
        },
        {
          "name": "leaseEnd",
          "type": "string"
        }
      ],
      "name": "startLease",
      "outputs": [],
      "payable": false,
      "stateMutability": "nonpayable",
      "type": "function"
    },
    {
      "constant": false,
      "inputs": [],
      "name": "checkLeaseEnd",
      "outputs": [],
      "payable": false,
      "stateMutability": "nonpayable",
      "type": "function"
    },
    {
      "constant": false,
      "inputs": [
        {
          "name": "id",
          "type": "uint32"
        },
        {
          "name": "price",
          "type": "uint32"
        }
      ],
      "name": "setSpacePrice",
      "outputs": [],
      "payable": false,
      "stateMutability": "nonpayable",
      "type": "function"
    },
    {
      "constant": false,
      "inputs": [
        {
          "name": "fromFloor",
          "type": "uint32"
        },
        {
          "name": "toFloor",
          "type": "uint32"
        },
        {
          "name": "price",
          "type": "uint32"
        }
      ],
      "name": "setVacantSpacePrice",
      "outputs": [],
      "payable": false,
      "stateMutability": "nonpayable",
      "type": "function"
    }
  ],
  "bytecode": "0x60806040526040805190810160405280601781526020017f436861696e45737461746520537061636520546f6b656e0000000000000000008152506040805190810160405280600481526020017f4345535400000000000000000000000000000000000000000000000000000000815250620000ad6301ffc9a77c010000000000000000000000000000000000000000000000000000000002620001db640100000000026401000000009004565b620000ea6380ac58cd7c010000000000000000000000000000000000000000000000000000000002620001db640100000000026401000000009004565b62000127634f558e797c010000000000000000000000000000000000000000000000000000000002620001db640100000000026401000000009004565b81600590805190602001906200013f92919062000299565b5080600690805190602001906200015892919062000299565b506200019663780e9d637c010000000000000000000000000000000000000000000000000000000002620001db640100000000026401000000009004565b620001d3635b5e139f7c010000000000000000000000000000000000000000000000000000000002620001db640100000000026401000000009004565b505062000348565b63ffffffff7c010000000000000000000000000000000000000000000000000000000002817bffffffffffffffffffffffffffffffffffffffffffffffffffffffff1916141515156200022d57600080fd5b6001600080837bffffffffffffffffffffffffffffffffffffffffffffffffffffffff19167bffffffffffffffffffffffffffffffffffffffffffffffffffffffff1916815260200190815260200160002060006101000a81548160ff02191690831515021790555050565b828054600181600116156101000203166002900490600052602060002090601f016020900481019282601f10620002dc57805160ff19168380011785556200030d565b828001600101855582156200030d579182015b828111156200030c578251825591602001919060010190620002ef565b5b5090506200031c919062000320565b5090565b6200034591905b808211156200034157600081600090555060010162000327565b5090565b90565b61372b80620003586000396000f30060806040526004361061015f576000357c0100000000000000000000000000000000000000000000000000000000900463ffffffff16806301ffc9a714610164578063055e55fb146101c857806306fdde03146101fb578063081812fc1461028b578063095ea7b3146102f8578063133536301461034557806318160ddd1461035c57806319fa8f5014610387578063217cd1f1146103f057806323b872dd146105875780632f745c59146105f457806337a931631461065557806342842e0e1461070e5780634f558e791461077b5780634f6ccce7146107c05780636352211e14610801578063675674f91461086e57806370a08231146108d557806383fa562d1461092c57806395d89b411461096f57806398633ebb146109ff578063a22cb46514610a66578063abfe8cd514610ab5578063b88d4fde14610b2e578063c87b56dd14610be1578063e985e9c514610c87578063f63d590814610d02575b600080fd5b34801561017057600080fd5b506101ae60048036038101908080357bffffffffffffffffffffffffffffffffffffffffffffffffffffffff19169060200190929190505050610d55565b604051808215151515815260200191505060405180910390f35b3480156101d457600080fd5b506101f9600480360381019080803563ffffffff169060200190929190505050610dbc565b005b34801561020757600080fd5b50610210610ddd565b6040518080602001828103825283818151815260200191508051906020019080838360005b83811015610250578082015181840152602081019050610235565b50505050905090810190601f16801561027d5780820380516001836020036101000a031916815260200191505b509250505060405180910390f35b34801561029757600080fd5b506102b660048036038101908080359060200190929190505050610e7f565b604051808273ffffffffffffffffffffffffffffffffffffffff1673ffffffffffffffffffffffffffffffffffffffff16815260200191505060405180910390f35b34801561030457600080fd5b50610343600480360381019080803573ffffffffffffffffffffffffffffffffffffffff16906020019092919080359060200190929190505050610ebc565b005b34801561035157600080fd5b5061035a611001565b005b34801561036857600080fd5b506103716111bf565b6040518082815260200191505060405180910390f35b34801561039357600080fd5b5061039c6111cc565b60405180827bffffffffffffffffffffffffffffffffffffffffffffffffffffffff19167bffffffffffffffffffffffffffffffffffffffffffffffffffffffff1916815260200191505060405180910390f35b3480156103fc57600080fd5b50610421600480360381019080803563ffffffff1690602001909291905050506111f3565b60405180806020018863ffffffff1663ffffffff1681526020018763ffffffff1663ffffffff1681526020018663ffffffff1663ffffffff1681526020018563ffffffff1663ffffffff1681526020018473ffffffffffffffffffffffffffffffffffffffff1673ffffffffffffffffffffffffffffffffffffffff1681526020018060200183810383528a818151815260200191508051906020019080838360005b838110156104df5780820151818401526020810190506104c4565b50505050905090810190601f16801561050c5780820380516001836020036101000a031916815260200191505b50838103825284818151815260200191508051906020019080838360005b8381101561054557808201518184015260208101905061052a565b50505050905090810190601f1680156105725780820380516001836020036101000a031916815260200191505b50995050505050505050505060405180910390f35b34801561059357600080fd5b506105f2600480360381019080803573ffffffffffffffffffffffffffffffffffffffff169060200190929190803573ffffffffffffffffffffffffffffffffffffffff169060200190929190803590602001909291905050506114bf565b005b34801561060057600080fd5b5061063f600480360381019080803573ffffffffffffffffffffffffffffffffffffffff169060200190929190803590602001909291905050506115ca565b6040518082815260200191505060405180910390f35b34801561066157600080fd5b506106ec600480360381019080803563ffffffff169060200190929190803590602001908201803590602001908080601f0160208091040260200160405190810160405280939291908181526020018383808284378201915050505050509192919290803563ffffffff169060200190929190803563ffffffff169060200190929190505050611641565b604051808263ffffffff1663ffffffff16815260200191505060405180910390f35b34801561071a57600080fd5b50610779600480360381019080803573ffffffffffffffffffffffffffffffffffffffff169060200190929190803573ffffffffffffffffffffffffffffffffffffffff16906020019092919080359060200190929190505050611876565b005b34801561078757600080fd5b506107a660048036038101908080359060200190929190505050611897565b604051808215151515815260200191505060405180910390f35b3480156107cc57600080fd5b506107eb60048036038101908080359060200190929190505050611909565b6040518082815260200191505060405180910390f35b34801561080d57600080fd5b5061082c60048036038101908080359060200190929190505050611941565b604051808273ffffffffffffffffffffffffffffffffffffffff1673ffffffffffffffffffffffffffffffffffffffff16815260200191505060405180910390f35b34801561087a57600080fd5b506108bf600480360381019080803563ffffffff169060200190929190803563ffffffff169060200190929190803563ffffffff1690602001909291905050506119bf565b6040518082815260200191505060405180910390f35b3480156108e157600080fd5b50610916600480360381019080803573ffffffffffffffffffffffffffffffffffffffff169060200190929190505050611c7e565b6040518082815260200191505060405180910390f35b34801561093857600080fd5b5061096d600480360381019080803563ffffffff169060200190929190803563ffffffff169060200190929190505050611d02565b005b34801561097b57600080fd5b50610984611eda565b6040518080602001828103825283818151815260200191508051906020019080838360005b838110156109c45780820151818401526020810190506109a9565b50505050905090810190601f1680156109f15780820380516001836020036101000a031916815260200191505b509250505060405180910390f35b348015610a0b57600080fd5b50610a50600480360381019080803563ffffffff169060200190929190803563ffffffff169060200190929190803563ffffffff169060200190929190505050611f7c565b6040518082815260200191505060405180910390f35b348015610a7257600080fd5b50610ab3600480360381019080803573ffffffffffffffffffffffffffffffffffffffff1690602001909291908035151590602001909291905050506122dc565b005b348015610ac157600080fd5b50610b2c600480360381019080803563ffffffff169060200190929190803590602001908201803590602001908080601f0160208091040260200160405190810160405280939291908181526020018383808284378201915050505050509192919290505050612418565b005b348015610b3a57600080fd5b50610bdf600480360381019080803573ffffffffffffffffffffffffffffffffffffffff169060200190929190803573ffffffffffffffffffffffffffffffffffffffff16906020019092919080359060200190929190803590602001908201803590602001908080601f01602080910402602001604051908101604052809392919081815260200183838082843782019150505050505091929192905050506125a4565b005b348015610bed57600080fd5b50610c0c600480360381019080803590602001909291905050506125cc565b6040518080602001828103825283818151815260200191508051906020019080838360005b83811015610c4c578082015181840152602081019050610c31565b50505050905090810190601f168015610c795780820380516001836020036101000a031916815260200191505b509250505060405180910390f35b348015610c9357600080fd5b50610ce8600480360381019080803573ffffffffffffffffffffffffffffffffffffffff169060200190929190803573ffffffffffffffffffffffffffffffffffffffff169060200190929190505050612695565b604051808215151515815260200191505060405180910390f35b348015610d0e57600080fd5b50610d53600480360381019080803563ffffffff169060200190929190803563ffffffff169060200190929190803563ffffffff169060200190929190505050612729565b005b6000806000837bffffffffffffffffffffffffffffffffffffffffffffffffffffffff19167bffffffffffffffffffffffffffffffffffffffffffffffffffffffff1916815260200190815260200160002060009054906101000a900460ff169050919050565b610dda610dce8263ffffffff16611941565b8263ffffffff1661285e565b50565b606060058054600181600116156101000203166002900480601f016020809104026020016040519081016040528092919081815260200182805460018160011615610100020316600290048015610e755780601f10610e4a57610100808354040283529160200191610e75565b820191906000526020600020905b815481529060010190602001808311610e5857829003601f168201915b5050505050905090565b60006002600083815260200190815260200160002060009054906101000a900473ffffffffffffffffffffffffffffffffffffffff169050919050565b6000610ec782611941565b90508073ffffffffffffffffffffffffffffffffffffffff168373ffffffffffffffffffffffffffffffffffffffff1614151515610f0457600080fd5b8073ffffffffffffffffffffffffffffffffffffffff163373ffffffffffffffffffffffffffffffffffffffff161480610f445750610f438133612695565b5b1515610f4f57600080fd5b826002600084815260200190815260200160002060006101000a81548173ffffffffffffffffffffffffffffffffffffffff021916908373ffffffffffffffffffffffffffffffffffffffff160217905550818373ffffffffffffffffffffffffffffffffffffffff168273ffffffffffffffffffffffffffffffffffffffff167f8c5be1e5ebec7d5bd14f71427d1e84f3dd0314c0f7b2291e5b200ac8c7c3b92560405160405180910390a4505050565b60008090505b600c805490508163ffffffff1610156111bc576001600c8263ffffffff1681548110151561103157fe5b9060005260206000209060050201600101600c9054906101000a900463ffffffff1663ffffffff1614156111af576020604051908101604052806000815250600c8263ffffffff1681548110151561108557fe5b906000526020600020906005020160030190805190602001906110a9929190613465565b5063ffffffff600c8263ffffffff168154811015156110c457fe5b906000526020600020906005020160040160009054906101000a900463ffffffff1663ffffffff16141561115b576000600c8263ffffffff1681548110151561110957fe5b9060005260206000209060050201600101600c6101000a81548163ffffffff021916908363ffffffff16021790555061115661114a8263ffffffff16611941565b8263ffffffff16612996565b6111ae565b61116481610dbc565b63ffffffff600c8263ffffffff1681548110151561117e57fe5b9060005260206000209060050201600101600c6101000a81548163ffffffff021916908363ffffffff1602179055505b5b8080600101915050611007565b50565b6000600980549050905090565b6301ffc9a77c01000000000000000000000000000000000000000000000000000000000281565b606060008060008060006060600c8863ffffffff1681548110151561121457fe5b9060005260206000209060050201600001600c8963ffffffff1681548110151561123a57fe5b906000526020600020906005020160010160009054906101000a900463ffffffff16600c8a63ffffffff1681548110151561127157fe5b906000526020600020906005020160010160049054906101000a900463ffffffff16600c8b63ffffffff168154811015156112a857fe5b906000526020600020906005020160010160089054906101000a900463ffffffff16600c8c63ffffffff168154811015156112df57fe5b9060005260206000209060050201600101600c9054906101000a900463ffffffff16600c8d63ffffffff1681548110151561131657fe5b906000526020600020906005020160020160009054906101000a900473ffffffffffffffffffffffffffffffffffffffff16600c8e63ffffffff1681548110151561135d57fe5b9060005260206000209060050201600301868054600181600116156101000203166002900480601f0160208091040260200160405190810160405280929190818152602001828054600181600116156101000203166002900480156114035780601f106113d857610100808354040283529160200191611403565b820191906000526020600020905b8154815290600101906020018083116113e657829003601f168201915b50505050509650808054600181600116156101000203166002900480601f01602080910402602001604051908101604052809291908181526020018280546001816001161561010002031660029004801561149f5780601f106114745761010080835404028352916020019161149f565b820191906000526020600020905b81548152906001019060200180831161148257829003601f168201915b505050505090509650965096509650965096509650919395979092949650565b6114c93382612b52565b15156114d457600080fd5b600073ffffffffffffffffffffffffffffffffffffffff168373ffffffffffffffffffffffffffffffffffffffff161415151561151057600080fd5b600073ffffffffffffffffffffffffffffffffffffffff168273ffffffffffffffffffffffffffffffffffffffff161415151561154c57600080fd5b6115568382612be7565b6115608382612996565b61156a8282612cea565b808273ffffffffffffffffffffffffffffffffffffffff168473ffffffffffffffffffffffffffffffffffffffff167fddf252ad1be2c89b69c2b068fc378daa952ba7f163c4a11628f55a4df523b3ef60405160405180910390a4505050565b60006115d583611c7e565b821015156115e257600080fd5b600760008473ffffffffffffffffffffffffffffffffffffffff1673ffffffffffffffffffffffffffffffffffffffff1681526020019081526020016000208281548110151561162e57fe5b9060005260206000200154905092915050565b600061164b6134e5565b6000610100604051908101604052808781526020018863ffffffff1681526020018663ffffffff1681526020018563ffffffff168152602001600063ffffffff168152602001600073ffffffffffffffffffffffffffffffffffffffff1681526020016020604051908101604052806000815250815260200163ffffffff801681525091506001600c8390806001815401808255809150509060018203906000526020600020906005020160009091929091909150600082015181600001908051906020019061171c92919061355f565b5060208201518160010160006101000a81548163ffffffff021916908363ffffffff16021790555060408201518160010160046101000a81548163ffffffff021916908363ffffffff16021790555060608201518160010160086101000a81548163ffffffff021916908363ffffffff160217905550608082015181600101600c6101000a81548163ffffffff021916908363ffffffff16021790555060a08201518160020160006101000a81548173ffffffffffffffffffffffffffffffffffffffff021916908373ffffffffffffffffffffffffffffffffffffffff16021790555060c082015181600301908051906020019061181c92919061355f565b5060e08201518160040160006101000a81548163ffffffff021916908363ffffffff1602179055505050039050611859338263ffffffff16612dc1565b6118698163ffffffff1687612e18565b8092505050949350505050565b61189283838360206040519081016040528060008152506125a4565b505050565b6000806001600084815260200190815260200160002060009054906101000a900473ffffffffffffffffffffffffffffffffffffffff169050600073ffffffffffffffffffffffffffffffffffffffff168173ffffffffffffffffffffffffffffffffffffffff161415915050919050565b60006119136111bf565b8210151561192057600080fd5b60098281548110151561192f57fe5b90600052602060002001549050919050565b6000806001600084815260200190815260200160002060009054906101000a900473ffffffffffffffffffffffffffffffffffffffff169050600073ffffffffffffffffffffffffffffffffffffffff168173ffffffffffffffffffffffffffffffffffffffff16141515156119b657600080fd5b80915050919050565b6000808363ffffffff16600c8663ffffffff168154811015156119de57fe5b906000526020600020906005020160010160049054906101000a900463ffffffff1663ffffffff16111515611a1257600080fd5b83600c8663ffffffff16815481101515611a2857fe5b906000526020600020906005020160010160049054906101000a900463ffffffff1603600c8663ffffffff16815481101515611a6057fe5b906000526020600020906005020160010160046101000a81548163ffffffff021916908363ffffffff160217905550611b8f600c8663ffffffff16815481101515611aa757fe5b906000526020600020906005020160010160009054906101000a900463ffffffff16600c8763ffffffff16815481101515611ade57fe5b90600052602060002090600502016000018054600181600116156101000203166002900480601f016020809104026020016040519081016040528092919081815260200182805460018160011615610100020316600290048015611b835780601f10611b5857610100808354040283529160200191611b83565b820191906000526020600020905b815481529060010190602001808311611b6657829003601f168201915b50505050508686611641565b63ffffffff1690506000600c82815481101515611ba857fe5b906000526020600020906005020160020160006101000a81548173ffffffffffffffffffffffffffffffffffffffff021916908373ffffffffffffffffffffffffffffffffffffffff1602179055506002600c82815481101515611c0857fe5b9060005260206000209060050201600101600c6101000a81548163ffffffff021916908363ffffffff16021790555084600c82815481101515611c4757fe5b906000526020600020906005020160040160006101000a81548163ffffffff021916908363ffffffff160217905550509392505050565b60008073ffffffffffffffffffffffffffffffffffffffff168273ffffffffffffffffffffffffffffffffffffffff1614151515611cbb57600080fd5b600360008373ffffffffffffffffffffffffffffffffffffffff1673ffffffffffffffffffffffffffffffffffffffff168152602001908152602001600020549050919050565b6000600c8363ffffffff16815481101515611d1957fe5b9060005260206000209060050201600101600c9054906101000a900463ffffffff1663ffffffff161480611d8957506002600c8363ffffffff16815481101515611d5f57fe5b9060005260206000209060050201600101600c9054906101000a900463ffffffff1663ffffffff16145b1515611d9457600080fd5b6002600c8363ffffffff16815481101515611dab57fe5b9060005260206000209060050201600101600c9054906101000a900463ffffffff1663ffffffff16148015611e875750600c808363ffffffff16815481101515611df157fe5b906000526020600020906005020160040160009054906101000a900463ffffffff1663ffffffff16815481101515611e2557fe5b906000526020600020906005020160020160009054906101000a900473ffffffffffffffffffffffffffffffffffffffff1673ffffffffffffffffffffffffffffffffffffffff163373ffffffffffffffffffffffffffffffffffffffff1614155b15611e9157600080fd5b80600c8363ffffffff16815481101515611ea757fe5b906000526020600020906005020160010160086101000a81548163ffffffff021916908363ffffffff1602179055505050565b606060068054600181600116156101000203166002900480601f016020809104026020016040519081016040528092919081815260200182805460018160011615610100020316600290048015611f725780601f10611f4757610100808354040283529160200191611f72565b820191906000526020600020905b815481529060010190602001808311611f5557829003601f168201915b5050505050905090565b6000808363ffffffff16600c8663ffffffff16815481101515611f9b57fe5b906000526020600020906005020160010160049054906101000a900463ffffffff1663ffffffff16111515611fcf57600080fd5b83600c8663ffffffff16815481101515611fe557fe5b906000526020600020906005020160010160049054906101000a900463ffffffff1603600c8663ffffffff1681548110151561201d57fe5b906000526020600020906005020160010160046101000a81548163ffffffff021916908363ffffffff16021790555061214c600c8663ffffffff1681548110151561206457fe5b906000526020600020906005020160010160009054906101000a900463ffffffff16600c8763ffffffff1681548110151561209b57fe5b90600052602060002090600502016000018054600181600116156101000203166002900480601f0160208091040260200160405190810160405280929190818152602001828054600181600116156101000203166002900480156121405780601f1061211557610100808354040283529160200191612140565b820191906000526020600020905b81548152906001019060200180831161212357829003601f168201915b50505050508686611641565b63ffffffff169050600c8563ffffffff1681548110151561216957fe5b906000526020600020906005020160020160009054906101000a900473ffffffffffffffffffffffffffffffffffffffff16600c828154811015156121aa57fe5b906000526020600020906005020160020160006101000a81548173ffffffffffffffffffffffffffffffffffffffff021916908373ffffffffffffffffffffffffffffffffffffffff160217905550600c8563ffffffff1681548110151561220e57fe5b9060005260206000209060050201600301600c8281548110151561222e57fe5b9060005260206000209060050201600301908054600181600116156101000203166002900461225e9291906135df565b50600c8563ffffffff1681548110151561227457fe5b906000526020600020906005020160040160009054906101000a900463ffffffff16600c828154811015156122a557fe5b906000526020600020906005020160040160006101000a81548163ffffffff021916908363ffffffff160217905550509392505050565b3373ffffffffffffffffffffffffffffffffffffffff168273ffffffffffffffffffffffffffffffffffffffff161415151561231757600080fd5b80600460003373ffffffffffffffffffffffffffffffffffffffff1673ffffffffffffffffffffffffffffffffffffffff16815260200190815260200160002060008473ffffffffffffffffffffffffffffffffffffffff1673ffffffffffffffffffffffffffffffffffffffff16815260200190815260200160002060006101000a81548160ff0219169083151502179055508173ffffffffffffffffffffffffffffffffffffffff163373ffffffffffffffffffffffffffffffffffffffff167f17307eab39ab6107e8899845ad3d59bd9653f200f220920489ca2b5937696c3183604051808215151515815260200191505060405180910390a35050565b6000600c8363ffffffff1681548110151561242f57fe5b9060005260206000209060050201600101600c9054906101000a900463ffffffff1663ffffffff16148061249f57506002600c8363ffffffff1681548110151561247557fe5b9060005260206000209060050201600101600c9054906101000a900463ffffffff1663ffffffff16145b15156124aa57600080fd5b6001600c8363ffffffff168154811015156124c157fe5b9060005260206000209060050201600101600c6101000a81548163ffffffff021916908363ffffffff16021790555033600c8363ffffffff1681548110151561250657fe5b906000526020600020906005020160020160006101000a81548173ffffffffffffffffffffffffffffffffffffffff021916908373ffffffffffffffffffffffffffffffffffffffff16021790555080600c8363ffffffff1681548110151561256b57fe5b9060005260206000209060050201600301908051906020019061258f929190613465565b506125a0338363ffffffff16612cea565b5050565b6125af8484846114bf565b6125bb84848484612e58565b15156125c657600080fd5b50505050565b60606125d782611897565b15156125e257600080fd5b600b60008381526020019081526020016000208054600181600116156101000203166002900480601f0160208091040260200160405190810160405280929190818152602001828054600181600116156101000203166002900480156126895780601f1061265e57610100808354040283529160200191612689565b820191906000526020600020905b81548152906001019060200180831161266c57829003601f168201915b50505050509050919050565b6000600460008473ffffffffffffffffffffffffffffffffffffffff1673ffffffffffffffffffffffffffffffffffffffff16815260200190815260200160002060008373ffffffffffffffffffffffffffffffffffffffff1673ffffffffffffffffffffffffffffffffffffffff16815260200190815260200160002060009054906101000a900460ff16905092915050565b60008090505b600c80549050811015612858578363ffffffff16600c8281548110151561275257fe5b906000526020600020906005020160010160009054906101000a900463ffffffff1663ffffffff16101580156127c457508263ffffffff16600c8281548110151561279957fe5b906000526020600020906005020160010160009054906101000a900463ffffffff1663ffffffff1611155b801561280657506000600c828154811015156127dc57fe5b9060005260206000209060050201600101600c9054906101000a900463ffffffff1663ffffffff16145b1561284b5781600c8281548110151561281b57fe5b906000526020600020906005020160010160086101000a81548163ffffffff021916908363ffffffff1602179055505b808060010191505061272f565b50505050565b600080600061286d858561307a565b6000600b60008681526020019081526020016000208054600181600116156101000203166002900490501415156128be57600b600085815260200190815260200160002060006128bd9190613666565b5b600a60008581526020019081526020016000205492506128ed60016009805490506130ee90919063ffffffff16565b91506009828154811015156128fe57fe5b906000526020600020015490508060098481548110151561291b57fe5b9060005260206000200181905550600060098381548110151561293a57fe5b9060005260206000200181905550600980548091906001900361295d91906136ae565b506000600a60008681526020019081526020016000208190555082600a6000838152602001908152602001600020819055505050505050565b60008060006129a58585613107565b60086000858152602001908152602001600020549250612a116001600760008873ffffffffffffffffffffffffffffffffffffffff1673ffffffffffffffffffffffffffffffffffffffff168152602001908152602001600020805490506130ee90919063ffffffff16565b9150600760008673ffffffffffffffffffffffffffffffffffffffff1673ffffffffffffffffffffffffffffffffffffffff16815260200190815260200160002082815481101515612a5f57fe5b9060005260206000200154905080600760008773ffffffffffffffffffffffffffffffffffffffff1673ffffffffffffffffffffffffffffffffffffffff16815260200190815260200160002084815481101515612ab957fe5b9060005260206000200181905550600760008673ffffffffffffffffffffffffffffffffffffffff1673ffffffffffffffffffffffffffffffffffffffff168152602001908152602001600020805480919060019003612b1991906136ae565b50600060086000868152602001908152602001600020819055508260086000838152602001908152602001600020819055505050505050565b600080612b5e83611941565b90508073ffffffffffffffffffffffffffffffffffffffff168473ffffffffffffffffffffffffffffffffffffffff161480612bcd57508373ffffffffffffffffffffffffffffffffffffffff16612bb584610e7f565b73ffffffffffffffffffffffffffffffffffffffff16145b80612bde5750612bdd8185612695565b5b91505092915050565b8173ffffffffffffffffffffffffffffffffffffffff16612c0782611941565b73ffffffffffffffffffffffffffffffffffffffff16141515612c2957600080fd5b600073ffffffffffffffffffffffffffffffffffffffff166002600083815260200190815260200160002060009054906101000a900473ffffffffffffffffffffffffffffffffffffffff1673ffffffffffffffffffffffffffffffffffffffff16141515612ce65760006002600083815260200190815260200160002060006101000a81548173ffffffffffffffffffffffffffffffffffffffff021916908373ffffffffffffffffffffffffffffffffffffffff1602179055505b5050565b6000612cf68383613236565b600760008473ffffffffffffffffffffffffffffffffffffffff1673ffffffffffffffffffffffffffffffffffffffff168152602001908152602001600020805490509050600760008473ffffffffffffffffffffffffffffffffffffffff1673ffffffffffffffffffffffffffffffffffffffff168152602001908152602001600020829080600181540180825580915050906001820390600052602060002001600090919290919091505550806008600084815260200190815260200160002081905550505050565b612dcb8282613390565b600980549050600a60008381526020019081526020016000208190555060098190806001815401808255809150509060018203906000526020600020016000909192909190915055505050565b612e2182611897565b1515612e2c57600080fd5b80600b60008481526020019081526020016000209080519060200190612e53929190613465565b505050565b600080612e7a8573ffffffffffffffffffffffffffffffffffffffff16613436565b1515612e895760019150613071565b8473ffffffffffffffffffffffffffffffffffffffff1663150b7a02338887876040518563ffffffff167c0100000000000000000000000000000000000000000000000000000000028152600401808573ffffffffffffffffffffffffffffffffffffffff1673ffffffffffffffffffffffffffffffffffffffff1681526020018473ffffffffffffffffffffffffffffffffffffffff1673ffffffffffffffffffffffffffffffffffffffff16815260200183815260200180602001828103825283818151815260200191508051906020019080838360005b83811015612f7e578082015181840152602081019050612f63565b50505050905090810190601f168015612fab5780820380516001836020036101000a031916815260200191505b5095505050505050602060405180830381600087803b158015612fcd57600080fd5b505af1158015612fe1573d6000803e3d6000fd5b505050506040513d6020811015612ff757600080fd5b8101908080519060200190929190505050905063150b7a027c0100000000000000000000000000000000000000000000000000000000027bffffffffffffffffffffffffffffffffffffffffffffffffffffffff1916817bffffffffffffffffffffffffffffffffffffffffffffffffffffffff19161491505b50949350505050565b6130848282612be7565b61308e8282612996565b80600073ffffffffffffffffffffffffffffffffffffffff168373ffffffffffffffffffffffffffffffffffffffff167fddf252ad1be2c89b69c2b068fc378daa952ba7f163c4a11628f55a4df523b3ef60405160405180910390a45050565b60008282111515156130fc57fe5b818303905092915050565b8173ffffffffffffffffffffffffffffffffffffffff1661312782611941565b73ffffffffffffffffffffffffffffffffffffffff1614151561314957600080fd5b61319c6001600360008573ffffffffffffffffffffffffffffffffffffffff1673ffffffffffffffffffffffffffffffffffffffff168152602001908152602001600020546130ee90919063ffffffff16565b600360008473ffffffffffffffffffffffffffffffffffffffff1673ffffffffffffffffffffffffffffffffffffffff1681526020019081526020016000208190555060006001600083815260200190815260200160002060006101000a81548173ffffffffffffffffffffffffffffffffffffffff021916908373ffffffffffffffffffffffffffffffffffffffff1602179055505050565b600073ffffffffffffffffffffffffffffffffffffffff166001600083815260200190815260200160002060009054906101000a900473ffffffffffffffffffffffffffffffffffffffff1673ffffffffffffffffffffffffffffffffffffffff161415156132a457600080fd5b816001600083815260200190815260200160002060006101000a81548173ffffffffffffffffffffffffffffffffffffffff021916908373ffffffffffffffffffffffffffffffffffffffff1602179055506133496001600360008573ffffffffffffffffffffffffffffffffffffffff1673ffffffffffffffffffffffffffffffffffffffff1681526020019081526020016000205461344990919063ffffffff16565b600360008473ffffffffffffffffffffffffffffffffffffffff1673ffffffffffffffffffffffffffffffffffffffff168152602001908152602001600020819055505050565b600073ffffffffffffffffffffffffffffffffffffffff168273ffffffffffffffffffffffffffffffffffffffff16141515156133cc57600080fd5b6133d68282612cea565b808273ffffffffffffffffffffffffffffffffffffffff16600073ffffffffffffffffffffffffffffffffffffffff167fddf252ad1be2c89b69c2b068fc378daa952ba7f163c4a11628f55a4df523b3ef60405160405180910390a45050565b600080823b905060008111915050919050565b6000818301905082811015151561345c57fe5b80905092915050565b828054600181600116156101000203166002900490600052602060002090601f016020900481019282601f106134a657805160ff19168380011785556134d4565b828001600101855582156134d4579182015b828111156134d35782518255916020019190600101906134b8565b5b5090506134e191906136da565b5090565b6101006040519081016040528060608152602001600063ffffffff168152602001600063ffffffff168152602001600063ffffffff168152602001600063ffffffff168152602001600073ffffffffffffffffffffffffffffffffffffffff16815260200160608152602001600063ffffffff1681525090565b828054600181600116156101000203166002900490600052602060002090601f016020900481019282601f106135a057805160ff19168380011785556135ce565b828001600101855582156135ce579182015b828111156135cd5782518255916020019190600101906135b2565b5b5090506135db91906136da565b5090565b828054600181600116156101000203166002900490600052602060002090601f016020900481019282601f106136185780548555613655565b8280016001018555821561365557600052602060002091601f016020900482015b82811115613654578254825591600101919060010190613639565b5b50905061366291906136da565b5090565b50805460018160011615610100020316600290046000825580601f1061368c57506136ab565b601f0160209004906000526020600020908101906136aa91906136da565b5b50565b8154818355818111156136d5578183600052602060002091820191016136d491906136da565b5b505050565b6136fc91905b808211156136f85760008160009055506001016136e0565b5090565b905600a165627a7a723058208a5a071aa0724f06ed259a530bebea982dd93cdf3b13494bb5d3d6e6863938960029",
  "source": "pragma solidity ^0.4.23;\n\nimport \"openzeppelin-solidity/contracts/token/ERC721/ERC721Token.sol\";\n\ncontract Space is ERC721Token(\"ChainEstate Space Token\", \"CEST\") {\n\n    /**\n    * @dev Additional data for each space\n    */\n    struct SpaceInfo {\n        string name;\n        uint32 floor;\n        uint32 size;\n        uint32 price;\n        uint32 status;\n        address leasee;\n        string leaseEnd;\n        uint32 parent;\n    }\n\n    /**\n    * @dev Array holding all space info\n    */\n    SpaceInfo[] spaces;\n\n    /**\n    * @dev Retrieve space for a space\n    */\n    function getSpaceInfo(uint32 id) view public returns(string, uint32, uint32, uint32, uint32, address, string) {\n        return (spaces[id].name, spaces[id].floor, spaces[id].size, spaces[id].price, spaces[id].status, spaces[id].leasee, \n            spaces[id].leaseEnd);\n    }\n\n    /**\n    * @dev Create new space\n    */\n    function createSpace(uint32 floor, string _name, uint32 size, uint32 price) public returns(uint32) {\n        SpaceInfo memory space = SpaceInfo({\n            name: _name, \n            floor: floor,\n            size: size,\n            price: price,\n            status: 0,\n            leasee: address(0x0),\n            leaseEnd: \"\",\n            parent: 0xffffffff});\n\n        uint32 id = uint32(spaces.push(space) - 1);\n        _mint(msg.sender, id);\n        _setTokenURI(id, _name);\n        return(id);\n    }\n\n    /**\n    * @dev Destroy existing space\n    */\n    function destroySpace(uint32 id) public {\n        _burn(ownerOf(id), id);\n    }\n\n    /**\n    * @dev Used by landlord to split vacant space, or used by tenants to split unoccupied sublet space\n    * New space created is sibling of existing\n    */\n    function splitSpace(uint32 parent, uint32 size, uint32 price) public returns(uint256) {\n        require(spaces[parent].size > size);\n\n        spaces[parent].size = spaces[parent].size - size;\n        uint256 newid = createSpace(spaces[parent].floor, spaces[parent].name, size, price);\n        spaces[newid].leasee = spaces[parent].leasee;\n        spaces[newid].leaseEnd = spaces[parent].leaseEnd;\n        spaces[newid].parent = spaces[parent].parent;\n    }\n\n    /**\n    * @dev Used by tenants to sublet unused leased space. New space created is child of existing\n    */\n    function subletSpace(uint32 parent, uint32 size, uint32 price) public returns(uint256) {\n        require(spaces[parent].size > size);\n\n        spaces[parent].size = spaces[parent].size - size;\n        uint256 newid = createSpace(spaces[parent].floor, spaces[parent].name, size, price);\n        spaces[newid].leasee = address(0x0);\n        spaces[newid].status = 2;\n        spaces[newid].parent = parent;\n    }\n\n    /**\n    * @dev Starting a new lease on an unoccupied space\n    */\n    function startLease(uint32 id, string leaseEnd) public {\n        require(spaces[id].status == 0 || spaces[id].status == 2);\n\n        spaces[id].status = 1;\n        spaces[id].leasee = msg.sender;\n        spaces[id].leaseEnd = leaseEnd;\n        addTokenTo(msg.sender, id);\n    }\n\n    /**\n    * @dev Check all spaces for lease end and reset to vacant space for original space, or remove sublet space\n    */\n    function checkLeaseEnd(/*string today*/) public {\n        // Loop through all spaces and update as follows if lease end date has passed\n        //      reset status to vacant if no parent\n        //      delete space if there is parent (sublet)\n        for (uint32 i = 0; i < spaces.length; i++) {\n            // Todo: find ways to do \"spaces[i].leaseEnd < today\"\n            if (/*spaces[i].leaseEnd  == today && */spaces[i].status==1) {\n                spaces[i].leaseEnd = \"\";\n                if (spaces[i].parent == 0xffffffff) {\n                    spaces[i].status = 0;\n                    removeTokenFrom(ownerOf(i), i);\n                }\n                else {\n                    destroySpace(i);\n                    spaces[i].status = 0xffffffff;\n                }\n            }\n        }\n    }\n\n    /**\n    * @dev Update price for space\n    */\n    function setSpacePrice(uint32 id, uint32 price) public {\n        require(spaces[id].status == 0 || spaces[id].status == 2);\n\n        // Only allow parent leasee to be able to change the price for sublet\n        if (spaces[id].status == 2 && msg.sender != spaces[spaces[id].parent].leasee)\n            revert();\n\n        spaces[id].price = price;\n    }\n\n    /**\n    * @dev Update all prices for vacant lots within the floor range\n    */\n    function setVacantSpacePrice(uint32 fromFloor, uint32 toFloor, uint32 price) public {\n        for (uint256 i = 0; i < spaces.length; i++) {\n            if (spaces[i].floor >= fromFloor && spaces[i].floor <= toFloor && spaces[i].status == 0) {\n                spaces[i].price = price;\n            }\n        }\n    }\n}",
  "sourcePath": "/Volumes/Data/dev/ChainEstate/contract/contracts/Space.sol",
  "compiler": {
    "name": "solc",
    "version": "0.4.24+commit.e67f0147.Emscripten.clang"
  },
  "schemaVersion": "2.0.1",
  "updatedAt": "2018-09-08T16:32:00.716Z"
}